:100000000C945F000C9487000C9487000C9487007C
:100010000C9487000C9487000C9487000C94FC02CD
:100020000C9487000C9487000C9487000C94870034
:100030000C9487000C9487000C9487000C94870024
:100040000C94B2020C9487000C94A4030C947E03CD
:100050000C9487000C9487000C9487000C94870004
:100060000C94D6030C9487000000000024002700A5
:100070002A0000000008000201000003040700003D
:10008000000000000000010204081020408001026E
:1000900004081020010204081020000000002500C0
:1000A00028002B00040404040404040402020202D5
:1000B00002020303030303030200CD0EA70E112463
:1000C0001FBECFEFD8E0DEBFCDBF11E0A0E0B1E0B2
:1000D000E8E6F6E202C005900D92A233B107D9F727
:1000E00022E0A2E3B1E001C01D92AC3EB207E1F70D
:1000F00010E0CEE5D0E004C02197FE010E94FB1184
:10010000CD35D107C9F70E94690A0C9427130C94C6
:100110000000089508958091A00190E020919F0132
:10012000821B91090895CF92DF92EF92FF920F9375
:100130001F93CF93DF936C017A018B01C0E0D0E075
:10014000CE15DF0581F0D8016D918D01D601ED91BD
:10015000FC910190F081E02DC6010995892B11F0E9
:100160002196EECF7E01C701DF91CF911F910F91B4
:10017000FF90EF90DF90CF900895FC01538D448D58
:10018000252F30E0842F90E0821B930B541710F042
:10019000CF96089501970895FC01918D828D98174F
:1001A00061F0828DDF01A80FB11D5D968C91928D5B
:1001B0009F5F9F73928F90E008958FEF9FEF089558
:1001C000FC01918D828D981731F0828DE80FF11D21
:1001D000858D90E008958FEF9FEF0895FC01918D3C
:1001E000228D892F90E0805C9F4F821B91098F7335
:1001F0009927089583E192E00E94EE0021E0892B87
:1002000009F420E0822F0895FC01848DDF01A80FFE
:10021000B11DA35ABF4F2C91848D90E001968F732E
:100220009927848FA689B7892C93A089B1898C914D
:10023000837080648C93938D848D981306C002889C
:10024000F389E02D80818F7D80830895EF92FF9266
:100250000F931F93CF93DF93EC0181E0888F9B8DE9
:100260008C8D981305C0E889F989808185FD26C0A9
:10027000F62E0B8D10E00F5F1F4F0F731127E02E2E
:100280008C8DE8120CC00FB607FCFACFE889F9890B
:10029000808185FFF5CFCE010E940401F1CF8B8DC7
:1002A000FE01E80FF11DE35AFF4FF0829FB7F8946B
:1002B0000B8FEA89FB89808180620AC09FB7F8941E
:1002C000EE89FF896083E889F98980818370806481
:1002D00080839FBF81E090E0DF91CF911F910F91CC
:1002E000FF90EF900895CF93DF93EC01888D8823E2
:1002F000C9F0EA89FB89808185FD05C0A889B98993
:100300008C9186FD0FC00FB607FCF5CF808185FF6D
:10031000F2CFA889B9898C9185FFEDCFCE010E94DB
:100320000401E7CFDF91CF91089580E090E0892B21
:1003300029F00E94FA0081110C940000089585EDC7
:100340008093BC008091BC0084FDFCCF1092EE0134
:10035000089540915301262F30E0240F311D2132A2
:100360003105DCF42091EE012430C9F4FC0180E079
:1003700090E0861758F4309153012191DC01AD5C77
:10038000BE4FA30FB11D2C930196F3CF8091530163
:10039000680F6093530180E0089581E0089582E042
:1003A00008950895E0919F018091A001E81730F42D
:1003B000F0E0E855FE4F808190E008958FEF9FEFC9
:1003C000089590919F018091A001981750F4E92F12
:1003D000F0E0E855FE4F208130E09F5F90939F0151
:1003E00002C02FEF3FEFC9010895CF92DF92EF9245
:1003F000FF920F931F93CF93DF937C01CB018A0170
:100400002091EF01222389F0EB016B01C40ED51E70
:10041000CC15DD0569F06991D701ED91FC91019052
:10042000F081E02DC7010995F3CF642F0E94A90147
:10043000C801DF91CF911F910F91FF90EF90DF9056
:10044000CF900895CF93DF931F92CDB7DEB7698326
:100450002091EF012223D1F020911202203240F0AE
:1004600021E030E0FC013383228380E090E015C07E
:100470008091F001E82FF0E0EF50FE4F99819083DA
:100480008F5F8093F0018093120205C061E0CE017E
:1004900001960E94A90181E090E00F90DF91CF9139
:1004A0000895089580E090E00895CF93CFB7F89431
:1004B00080913201811127C0EEEAF0E08491E0E9F9
:1004C000F0E09491E82FF0E0EE0FFF1FE859FF4FA6
:1004D000A591B491EC91E92321F461E08AE00E94B6
:1004E000BB0661E08AE00E94C2078CB580618CBDCA
:1004F0008CB580648CBD61E08DE00E94C20761E034
:100500008BE00E94C207809132018F5F809332019D
:10051000CFBFCF9108950E9422133FB7F8948091E6
:100520009B0190919C01A0919D01B0919E0126B5E7
:10053000A89B05C02F3F19F00196A11DB11D3FBF1B
:10054000BA2FA92F982F8827820F911DA11DB11DA9
:10055000BC01CD0143E0660F771F881F991F4A95A4
:10056000D1F708951F920F920FB60F9211242F9377
:100570003F938F939F93AF93BF93809197019091F7
:100580009801A0919901B0919A013091960126E0CD
:10059000230F2D3720F40296A11DB11D05C029E8B7
:1005A000230F0396A11DB11D2093960180939701FF
:1005B00090939801A0939901B0939A0180919B0127
:1005C00090919C01A0919D01B0919E010196A11D69
:1005D000B11D80939B0190939C01A0939D01B093CA
:1005E0009E01BF91AF919F918F913F912F910F905D
:1005F0000FBE0F901F9018951F920F920FB60F927B
:1006000011242F933F934F935F936F937F938F9317
:100610009F93AF93BF93EF93FF938091A401909129
:10062000A501A091A601B091A701892B8A2B8B2B44
:1006300059F19091A101E091A201F091A301808173
:10064000892780838091A4019091A501A091A601A2
:10065000B091A701181619061A061B060CF03DC02A
:100660008091A4019091A501A091A601B091A7014C
:100670000197A109B1098093A4019093A501A093CA
:10068000A601B093A70129C080910001E8EBF0E03A
:10069000E4919FEF90930001E130B9F098F0E230DF
:1006A000C9F4909170009D7F9093700091E09093B9
:1006B000B0009091B100987F94609093B100109237
:1006C000B30008C010926E0005C090916F009D7F2E
:1006D00090936F0060E00E94BB06FF91EF91BF9185
:1006E000AF919F918F917F916F915F914F913F91CA
:1006F0002F910F900FBE0F901F9018951F920F9281
:100700000FB60F9211242F933F934F935F936F93E4
:100710007F938F939F93AF93BF93EF93FF9383E167
:1007200092E00E940401FF91EF91BF91AF919F91E0
:100730008F917F916F915F914F913F912F910F908A
:100740000FBE0F901F9018951F920F920FB60F9229
:1007500011242F938F939F93EF93FF93E0912302A4
:10076000F09124028081E0912902F0912A0282FD19
:1007700012C0908180912C028F5F8F7320912D0287
:10078000821751F0E0912C02F0E0ED5EFD4F958F65
:1007900080932C0201C08081FF91EF919F918F91F6
:1007A0002F910F900FBE0F901F9018951F920F92D0
:1007B0000FB60F9211242F933F934F935F936F9334
:1007C0007F938F939F93AF93BF93EF93FF9380910A
:1007D000B900887F803609F49CC068F5883209F436
:1007E0005BC090F4803109F454C038F4882309F4D4
:1007F000F6C0883009F44DC0F6C0883109F44CC009
:10080000803209F45DC0EFC0803409F468C048F458
:10081000803309F455C0883309F0E5C08093EC01BA
:10082000D8C0803509F44FC0883509F45DC08834DC
:1008300009F0D9C0D6C0883909F4C7C0A8F48837F0
:1008400009F467C038F4883609F463C0803709F4C6
:1008500060C0C9C0883809F4B8C0803909F45FC0E5
:10086000803809F0C0C05BC0803B09F486C038F412
:10087000803A09F466C0883A09F47FC0B4C0803C6D
:1008800009F4A7C0883C09F4A4C0883B09F48AC0D5
:10089000AAC08091C90110C09091EB018091EA013A
:1008A000981770F5E091EB0181E08E0F8093EB01DA
:1008B000F0E0E653FE4F80818093BB0085EC86C05C
:1008C0008093EC018EC0E091EB0181E08E0F80936C
:1008D000EB018091BB00F0E0E653FE4F80839091E6
:1008E000EB018091EA016EC0E091EB0181E08E0F97
:1008F0008093EB018091BB00F0E0E653FE4F8083D4
:100900008091ED0181116DC081E08093C80184EA7E
:1009100061C083E08093EE0110927501CFCF80918A
:100920007501803208F051C0E091750181E08E0FB1
:10093000809375018091BB00F0E0EB5AFE4F8083FD
:10094000BDCF85EC8093BC001092EE0180917501C3
:10095000803230F4E0917501F0E0EB5AFE4F1082E6
:100960006091750170E0E0917601F091770185E585
:1009700091E009951092750136C084E08093EE01F4
:100980001092540110925301E0917801F091790195
:10099000099580915301811105C081E08093530135
:1009A00010923301E091540181E08E0F8093540145
:1009B000F0E0ED5CFE4F80818093BB00909154018C
:1009C00080915301981708F479CF85E88093BC0093
:1009D0000AC085EC8093BC001092EE0104C0109216
:1009E000EC010E949F01FF91EF91BF91AF919F9108
:1009F0008F917F916F915F914F913F912F910F90C8
:100A00000FBE0F901F9018958EBD00000DB407FE0D
:100A1000FDCF8EB5089539E0315019F1E091DA0239
:100A2000F091DB029091D802208187FF02C0922BC7
:100A300002C0909592239083E091DC02F091DD0258
:100A400020819091D902922B9083E091DC02F09169
:100A5000DD0220819091D902909592239083880F96
:100A6000DBCF0895282F30911202313208F04AC0AE
:100A70008091EE018111FCCF9091110242E04093F0
:100A8000EE012093ED012FEF2093EC011092EB018A
:100A90003093EA01E1EFF1E0AAECB1E020E0321797
:100AA00021F041914D932F5FFACF1092C90120910F
:100AB000C901990F922B9093C9019091C80191306F
:100AC00061F41092C8019091C9019093BB0090917C
:100AD000BC0093FDF8CF95EC01C095EE9093BC005F
:100AE0009091EE019230E1F39091EC019F3F79F00B
:100AF0008091EC01803241F08091EC01803331F043
:100B000084E005C081E003C082E001C083E0109270
:100B1000F001109212021092EF0108959091EE01EF
:100B20009111FCCF91E09093EE019093ED012FEFA6
:100B30002093EC011092EB01260F2093EA01909391
:100B4000C9019091C901880F892B8093C9018091B7
:100B5000C801813061F41092C8018091C90180936D
:100B6000BB008091BC0083FDF8CF85EC01C085EE11
:100B70008093BC008091EE018130E1F38091EB0124
:100B8000861710F46091EB01AAECB1E0E8EAF1E01D
:100B900080E0861721F09D9191938F5FFACF0895A1
:100BA000DF92EF92FF920F931F93CF93DF93C09149
:100BB000D302D091D402209709F497C00091CE02BD
:100BC0001091CF02D090D2028091D0028F3F09F0D5
:100BD00041C080E00E94040580E00E94040580E09E
:100BE0000E9404051EBC4FEF0DB407FEFDCF4EBDA5
:100BF000FE0183E09091D202992331F02081D29EB0
:100C000090011124932F01C090810DB407FEFDCFF8
:100C10009EBD815031968111EDCF2396015011096F
:100C200019F70DB407FEFDCFC0E02C2F30E0809106
:100C3000CE029091CF020F9654E0969587955A95E3
:100C4000E1F72817390708F050C08FEF0E9404051C
:100C5000CF5FEBCF80E00E940B0580E00E940B0588
:100C600080E00E940B0580E00E940B058091D2027B
:100C7000882309F18FEF0E940B057E012396F7016F
:100C800081917F01D89EC0011124892F0E940B05FC
:100C9000EC16FD06A1F70150110961F7C0E011C083
:100CA000F70181917F010E940B05EC16FD06C1F74B
:100CB0000150110999F38FEF0E940B057E012396D5
:100CC000EFCF2C2F30E08091CE029091CF020F9683
:100CD00044E0969587954A95E1F72817390728F457
:100CE0008FEF0E940B05CF5FECCFDF91CF911F916B
:100CF0000F91FF90EF90DF900895BC018091C302A7
:100D00008430E9F068F4823091F5072E000C880BEE
:100D1000990B0E94891020E03CEC49E756E424C07E
:100D20008830C1F0803119F5072E000C880B990B23
:100D30000E94891020E030E040EA54E415C0072EFC
:100D4000000C880B990B0E94891020E030E045EFE1
:100D500055E40AC0072E000C880B990B0E948910DD
:100D600020E030EB42E755E40E94E60F089560E092
:100D700070E0CB01089590E0FC01EE58FF4F249104
:100D8000FC01EA57FF4F3491FC01EC55FF4FE49111
:100D9000EE2309F43CC0222339F1233091F038F4DA
:100DA0002130A9F0223001F584B58F7D12C02730A3
:100DB00091F02830A1F02430B9F4809180008F7D2B
:100DC00003C0809180008F77809380000DC084B530
:100DD0008F7784BD09C08091B0008F7703C0809168
:100DE000B0008F7D8093B000F0E0EE0FFF1FE6565D
:100DF000FF4FA591B4919FB7F894611104C08C91F5
:100E00003095382302C0EC913E2B3C939FBF089550
:100E1000CF93DF93D82FC62F8091BC02882399F0FF
:100E2000813081F560E08091BE020E94BB068D2F6B
:100E30000E9404058C2F0E94040561E08091BE028F
:100E40000E94BB061FC08091BD0291E09093EF010C
:100E5000809311021092F001109212026D2F80EB1C
:100E600092E00E9422026C2F80EB92E00E9422020C
:100E700081E00E94320521E090E0811101C020E074
:100E8000822F02C080E090E0DF91CF910895EF9231
:100E9000FF920F931F93CF93DF9300D0CDB7DEB7B0
:100EA0007C01162F8091BC02882319F0813089F1D2
:100EB00058C08091BD0291E09093EF0180931102A0
:100EC0001092F00110921202606880EB92E00E9492
:100ED000220281E00E943205811140C062E08091CF
:100EE000BD020E948E05182F10929F018093A001D1
:100EF0008823B9F180EB92E00E94E101898380911F
:100F00009F01811771F180EB92E00E94E1018A83D9
:100F100028C060E08091BE020E94BB06812F806CD9
:100F20000E94040580E00E94040511E08F3F09F053
:100F300010E0898380E00E9404058F3F09F41F5F61
:100F40008A83123019F000E010E002C005E010E0E2
:100F500061E08091BE020E94BB0605C001E010E086
:100F600002C000E010E089819A81F70191838083BB
:100F7000C8010F900F90DF91CF911F910F91FF90BB
:100F8000EF900895CF93DF9390E0FC01EA57FF4F75
:100F90002491FC01EC55FF4F8491882361F190E08E
:100FA000880F991FFC01E859FF4FC591D491FC01AE
:100FB000E656FF4FA591B491611109C09FB7F8940F
:100FC0008881209582238883EC912E230BC0623088
:100FD00061F49FB7F8948881322F309583238883FA
:100FE000EC912E2B2C939FBF06C08FB7F894E8810D
:100FF0002E2B28838FBFDF91CF9108954F925F9260
:101000006F927F928F929F92AF92BF92CF92DF9218
:10101000EF92FF921F93CF93DF93EC018091000139
:10102000823021F08F3F09F00AC204C0E8EBF0E003
:1010300014916FC082E080930001E8EBF0E014911E
:101040001F3F09F4FCC1113009F440C030F11230E7
:1010500009F05FC01092B0001092B1008091B00012
:1010600082608093B0008091B10081608093B10074
:10107000E6EAF0E0E491F0E0EE0FFF1FE656FF4FE6
:10108000859194919093A3018093A201E8E8F0E008
:10109000E491E093A10112E0CDC114BC15BC84B56C
:1010A000826084BD85B5816085BDE6EAF0E0E491AB
:1010B000F0E0EE0FFF1FE656FF4F85919491E8E8B0
:1010C000F0E0E491E093DF0210E0B4C11092800000
:1010D00010928100809181008860809381008091CE
:1010E0008100816080938100E6EAF0E0E491F0E025
:1010F000EE0FFF1FE656FF4F85919491E8E8F0E070
:10110000E491E093DE0261E082E00E94C20711E018
:10111000B1C017FD94C161E082E00E94C207812F37
:101120008D7F09F0A7C04E01A12CB12C60E079E0C1
:101130008DE390E0A50194010E94CD1129013A01AF
:1011400069017A0121E0C21AD108E108F1088FEFA4
:10115000C816D104E104F10409F008F44BC060E2C0
:1011600071EA87E090E0A50194010E94CD11690128
:101170007A0181E0C81AD108E108F108123001F5BE
:101180002FEFC216D104E104F10409F008F4EAC01B
:1011900068E478EE81E090E0A50194010E94CD1111
:1011A00069017A0181E0C81AD108E108F1082FEF3E
:1011B000C216D104E104F10409F030F583E053C014
:1011C0008FEFC816D104E104F104B1F0A8F064E295
:1011D00074EF80E090E0A50194010E94CD116901B7
:1011E0007A0181E0C81AD108E108F108112309F455
:1011F000EEC0E4C081E001C082E0111134C095B5B9
:10120000987F892B85BD68C064E274EF80E090E030
:10121000A50194010E94CD1169017A0181E0C81AEB
:10122000D108E108F1082FEFC216D104E104F1045E
:1012300009F008F495C062E17AE780E090E0A5014A
:1012400094010E94CD1169017A0181E0C81AD10888
:10125000E108F1082FEFC216D104E104F10411F006
:1012600008F082C085E09091B100987F892B80932F
:10127000B10032C04E01A12CB12C60E079E08DE3C9
:1012800090E0A50194010E94CD1169017A0181E0ED
:10129000C81AD108E108F108C114D10421E0E2061E
:1012A000F10488F064E274EF80E090E0A50194011D
:1012B0000E94CD1169017A0181E0C81AD108E108C4
:1012C000F10883E001C081E0113031F49091810098
:1012D000987F892B809381009E01220F331FA0ED00
:1012E000B7E00E94EC1128EE33E040E050E00E94AD
:1012F000AB11113099F0123019F11111A0C0C7BC17
:101300002093E4023093E5024093E6025093E70213
:1013100080916E00826080936E0091C0D0928900AF
:10132000C09288002093E0023093E1024093E202F1
:101330005093E30280916F00826080936F007FC0C2
:10134000C092B3002093A4013093A5014093A6015D
:101350005093A701809170008260809370006FC0ED
:1013600084E081CF82E07FCF69E07DE380E090E0A0
:10137000A50194010E94CD1169017A0181E0C81A8A
:10138000D108E108F1088FEFC816D104E104F10497
:1013900099F090F0D301C2012AE0B595A7959795F1
:1013A00087952A95D1F76C017D0121E0C21AD108F9
:1013B000E108F10887E057CF86E055CF2FEFC2163E
:1013C000D104E104F10409F078F684E016CF8FEF40
:1013D000C816D104E104F10459F150F169E07DE34C
:1013E00080E090E0A50194010E94CD1169017A018D
:1013F00081E0C81AD108E108F1082FEFC216D10424
:10140000E104F10499F090F0D301C2013AE0B595FE
:10141000A795979587953A95D1F76C017D0121E0C5
:10142000C21AD108E108F10885E0E9CE84E0E7CEF0
:1014300083E0E5CE61E082E00E94C20774CEDF91D6
:10144000CF911F91FF90EF90DF90CF90BF90AF9022
:101450009F908F907F906F905F904F9008958F92A4
:101460009F92AF92BF92CF92DF92EF92FF926B0169
:101470007C010E948D024B015C01C114D104E10486
:10148000F104F1F00E948D02DC01CB018819990969
:10149000AA09BB09883E9340A105B10570F321E07C
:1014A000C21AD108E108F10888EE880E83E0981E80
:1014B000A11CB11CC114D104E104F10419F7DDCF62
:1014C000FF90EF90DF90CF90BF90AF909F908F9064
:1014D0000895CF93DF93CDB7DEB76B970FB6F8942F
:1014E000DEBF0FBECDBF789484B5826084BD84B565
:1014F000816084BD85B5826085BD85B5816085BD0F
:1015000080916E00816080936E00109281008091C6
:10151000810082608093810080918100816080934E
:101520008100809180008160809380008091B10073
:1015300084608093B1008091B00081608093B0009E
:1015400080917A00846080937A0080917A00826032
:1015500080937A0080917A008E7F80937A008091C8
:101560007A00806880937A001092C10061E088E080
:101570000E94C20760E088E00E94BB0688EB91E011
:101580000E94FE0760ED77E080E090E00E942F0A65
:1015900080E793E00E94FE0760ED77E080E090E056
:1015A0000E942F0A80EE96E00E94FE0760ED77E031
:1015B00080E090E00E942F0A8091D0028F3F79F462
:1015C0000E9455028CB58C7F8CBD8DB581608DBD20
:1015D0008CB58F7D8CBD8CB5837F8CBD47C061E0A1
:1015E0000E94C20761E08091D1020E94C2078091EF
:1015F000D00290E0FC01EC55FF4FE491F0E0EE0FDB
:10160000FF1FE656FF4FA591B491B093DB02A09364
:10161000DA022091D10230E0F901EC55FF4FE4915C
:10162000F0E0EE0FFF1FE656FF4F459154915093A7
:10163000DD024093DC02FC01EA57FF4F8491809366
:10164000D802F901EA57FF4FE491E093D9029C9147
:10165000E82FE095E923EC93E091DC02F091DD02C4
:1016600090818091D9028095892380830E94D00542
:10167000E0912302F091240282E08083E0911F0236
:10168000F09120021082E0912102F091220280E18B
:10169000808310922B02E0912702F091280286E0CD
:1016A0008083E0912502F091260280818061808311
:1016B000E0912502F0912602808188608083E0918C
:1016C0002502F0912602808180688083E0912502C6
:1016D000F091260280818F7D808361E084E00E940A
:1016E000C20760E084E00E94BB0661E08AE00E94DD
:1016F000C20760E08AE00E94BB061092BF0210920F
:10170000C00289E190E09093C2028093C10284E01C
:101710008093C30281E08093C4028093C5028093CA
:10172000C6029091BC029923E1F0913009F04BC0C0
:1017300061E08091BE020E94C20761E08091BE021A
:101740000E94BB060E9455028CB58C7F8CBD8DB566
:101750008E7F8DBD8CB58F7D8CBD8CB58C608CBD26
:1017600032C010929F011092A0011092F0011092CD
:1017700012021092EE018093ED011092C80161E017
:1017800082E10E94BB0661E083E10E94BB0680917A
:10179000B9008E7F8093B9008091B9008D7F8093CE
:1017A000B90080E28093B80085E48093BC0089E8AA
:1017B00090E090937901809378018AE890E090938B
:1017C0007701809376011B8280E197E22B812F5F66
:1017D0002B830197D9F78091BC02882399F081303F
:1017E000C1F560E08091BE020E94BB068FE80E94B6
:1017F000040580E00E94040561E08091BE020E9421
:10180000BB0627C08091BD0291E09093EF018093C9
:1018100011021092F001109212026FE080EB92E040
:101820000E94220281E00E94320561E08091BD02A7
:101830000E948E0510929F018093A0019091A001BB
:1018400080919F01981729F080EB92E00E94E101BE
:10185000F5CF8091C00280FBCC24C0F8D12CB6011A
:10186000F6E0660F771FFA95E1F79091BF0220E846
:10187000929FC0011124682B8FE10E94080780917C
:10188000C1029091C20282339105F9F048F48A3086
:101890009105B9F089319105B1F00197D1F41FC0DC
:1018A000883C9105A1F028F48436910591F480E5F7
:1018B00017C08034A6E09A0771F08838934169F028
:1018C00008C080E20DC080E30BC080E409C080E660
:1018D00007C080E705C080E803C080E901C080E15F
:1018E0009091C60290FBEE24E0F8F12CEE0CFF1C68
:1018F000EE0CFF1C9091C502092F017010E0000F43
:10190000111F0E296091C4026170062B602F682B95
:1019100080E20E940807E091C302E250E73028F419
:10192000F0E0E95FFE4F608101C060E3686883E238
:101930000E94080768EC70E080E090E00E942F0AA7
:1019400061E088E00E94BB0661E084E00E94BB0683
:1019500068E2CE0101960E9447070097A9F005971B
:1019600051F48091CA029091CB0201969093CB02E0
:101970008093CA0209C08091CC029091CD02019659
:101980009093CD028093CC0289819A810E947D063A
:101990006C877D878E879F876093920170939301F8
:1019A00080939401909395016AE2CE0101960E9482
:1019B00047070097A9F0059751F48091CA029091CA
:1019C000CB0201969093CB028093CA0209C080910A
:1019D000CC029091CD0201969093CD028093CC02DF
:1019E00089819A810E947D06688779878A879B878B
:1019F00060938E0170938F01809390019093910179
:101A00006CE2CE0101960E9447070097A9F0059766
:101A100051F48091CA029091CB0201969093CB022F
:101A20008093CA0209C08091CC029091CD020196A8
:101A30009093CD028093CC0289819A810E947D0689
:101A40006C837D838E839F8360938A0170938B0167
:101A500080938C0190938D0160E084E00E94BB062E
:101A600040907A0150907B0160907C0170907D01E4
:101A700080907E0190907F01A0908001B0908101C4
:101A8000C0908201D0908301E0908401F0908501A4
:101A9000212C312C00E010E08C859D85AE85BF8522
:101AA000B058888B998BAA8BBB8B88859985AA8522
:101AB000BB85B0588C8B9D8BAE8BBF8B8C819D81F1
:101AC000AE81BF81B058888F998FAA8FBB8F0330AA
:101AD000110509F4E6C020E030E0A9016C857D85A0
:101AE0008E859F850E94391120E030E040EF52E45E
:101AF00018162CF46C857D858E859F8504C06889B9
:101B000079898A899B890E943E112B013C0120E042
:101B100030E0A9010E94E10F87FD11C020E030E014
:101B20004FE753E4C301B2010E943911181654F46F
:101B3000412C512C6FE7662E63E4762E03C0412CB6
:101B4000512C320120E030E0A901688579858A8531
:101B50009B850E94391120E030E040EF52E41816D6
:101B60002CF4688579858A859B8504C06C897D897C
:101B70008E899F890E943E114B015C0120E030E07C
:101B8000A9010E94E10F87FD11C020E030E04FE77E
:101B900053E4C501B4010E943911181654F4812C84
:101BA000912C5FE7A52E53E4B52E03C0812C912C18
:101BB000540120E030E0A9016C817D818E819F81FC
:101BC0000E94391120E030E040EF52E418162CF466
:101BD0006C817D818E819F8104C0688D798D8A8D15
:101BE0009B8D0E943E116B017C0120E030E0A90139
:101BF0000E94E10F87FD11C020E030E04FE753E481
:101C0000C701B6010E943911181654F4C12CD12C09
:101C10004FE7E42E43E4F42E03C0C12CD12C76010F
:101C20008091CE029091CF0208171907A0F5C30149
:101C3000B2010E945810982F872F762F66270E9496
:101C40008710A50194010E94750F0E945810982FCB
:101C5000872F762F66270E948710A70196010E9482
:101C6000750F0E9458102091D3023091D402220D9A
:101C7000331D9091D502F901E90FF11D8083809108
:101C8000D602F901E80FF11D70838091D702F901A6
:101C9000E80FF11D60830F5F1F4F93E0290E311C89
:101CA00016CF109389010093880140927A015092D7
:101CB0007B0160927C0170927D0180927E01909206
:101CC0007F01A0928001B0928101C0928201D092E6
:101CD0008301E0928401F092850161E08AE00E9434
:101CE000BB060E94D00560E08AE00E94BB0683E14B
:101CF00092E00E94EE001816190604F583E192E0C6
:101D00000E94CC00909387018093860181309105D9
:101D100019F488EB91E00AC08230910519F480E74C
:101D200093E004C0039751F480EE96E00E94FE0712
:101D300060ED77E080E090E00E942F0A62E070E0C2
:101D400080E090E00E942F0A0E949501FDCD8091D5
:101D5000D3029091D402009711F00E9499128091C1
:101D6000D0028F3F91F49FB7F8948091320188237D
:101D700019F081508093320180913201811103C0AA
:101D80008CB58F7B8CBD9FBF089560E00E94C20719
:101D900060E08091D1020C94C2071092160210925A
:101DA000150288EE93E0A0E0B0E0809317029093D4
:101DB0001802A0931902B0931A0222E131E0309385
:101DC00014022093130225EC30E03093200220937C
:101DD0001F0224EC30E0309322022093210220ECF9
:101DE00030E0309324022093230221EC30E0309342
:101DF00026022093250222EC30E030932802209323
:101E0000270226EC30E030932A0220932902109218
:101E10002C0210922D0210922E0210922F0210927C
:101E2000B3021092B2028093B4029093B502A093D1
:101E3000B602B093B70284E291E09093B10280932E
:101E4000B00283E090E09093CF028093CE028FEFB8
:101E50008093D0021092D20281E08093D50282E07A
:101E60008093D6021092D70289E090E00E9401127E
:101E70009093D4028093D302009731F029E0FC01C3
:101E800011922A95E9F704C01092CF021092CE0267
:101E900089E18093BD028AE08093BE0281E0809355
:101EA000BC028093BF028093C00222E330E03093F3
:101EB000C2022093C10292E09093C3028093C402B5
:101EC0008093C5028093C6021092C70284E180937A
:101ED000C9021092C8021092CB021092CA0210924C
:101EE000CD021092CC0208955058BB27AA270E9419
:101EF0008C0F0C94FF100E94F11038F00E94F81023
:101F000020F039F49F3F19F426F40C94EE100EF4EF
:101F1000E095E7FB0C94E810E92F0E94101158F3AC
:101F2000BA17620773078407950720F079F4A6F5BE
:101F30000C9432110EF4E0950B2EBA2FA02D0B014C
:101F4000B90190010C01CA01A0011124FF27591BFE
:101F500099F0593F50F4503E68F11A16F040A22F04
:101F6000232F342F4427585FF3CF46953795279575
:101F7000A795F0405395C9F77EF41F16BA0B620B74
:101F8000730B840BBAF09150A1F0FF0FBB1F661FBB
:101F9000771F881FC2F70EC0BA0F621F731F841FFE
:101FA00048F4879577956795B795F7959E3F08F024
:101FB000B0CF9395880F08F09927EE0F97958795E6
:101FC00008950E94C41008F481E008950E94FA0F59
:101FD0000C94FF100E94F81058F00E94F11040F08D
:101FE00029F45F3F29F00C94E81051110C9433113F
:101FF0000C94EE100E94101168F39923B1F355234D
:1020000091F3951B550BBB27AA276217730784070B
:1020100038F09F5F5F4F220F331F441FAA1FA9F3A1
:1020200035D00E2E3AF0E0E832D091505040E6958F
:10203000001CCAF72BD0FE2F29D0660F771F881FF0
:10204000BB1F261737074807AB07B0E809F0BB0BE3
:10205000802DBF01FF2793585F4F3AF09E3F5105F7
:1020600078F00C94E8100C9433115F3FE4F3983E41
:10207000D4F3869577956795B795F7959F5FC9F7E0
:10208000880F911D9695879597F90895E1E0660F61
:10209000771F881FBB1F621773078407BA0720F0DA
:1020A000621B730B840BBA0BEE1F88F7E095089543
:1020B0000E94181188F09F5798F0B92F9927B751AF
:1020C000B0F0E1F0660F771F881F991F1AF0BA95DC
:1020D000C9F714C0B13091F00E943211B1E00895F7
:1020E0000C943211672F782F8827B85F39F0B93FE9
:1020F000CCF3869577956795B395D9F73EF490958F
:102100008095709561957F4F8F4F9F4F0895E8940C
:1021100009C097FB3EF490958095709561957F4F2F
:102120008F4F9F4F9923A9F0F92F96E9BB279395DD
:10213000F695879577956795B795F111F8CFFAF4ED
:10214000BB0F11F460FF1BC06F5F7F4F8F4F9F4F1E
:1021500016C0882311F096E911C0772321F09EE87C
:10216000872F762F05C0662371F096E8862F70E0E2
:1021700060E02AF09A95660F771F881FDAF7880FBC
:102180009695879597F90895990F0008550FAA0B12
:10219000E0E8FEEF16161706E807F907C0F012167A
:1021A0001306E407F50798F0621B730B840B950B7D
:1021B00039F40A2661F0232B242B252B21F40895D2
:1021C0000A2609F4A140A6958FEF811D811D08956F
:1021D00097F99F6780E870E060E008959FEF80ECDA
:1021E000089500240A94161617061806090608957D
:1021F00000240A9412161306140605060895092EE3
:102200000394000C11F4882352F0BB0F40F4BF2B51
:1022100011F460FF04C06F5F7F4F8F4F9F4F089591
:1022200057FD9058440F551F59F05F3F71F0479587
:10223000880F97FB991F61F09F3F79F0879508956C
:10224000121613061406551FF2CF4695F1DF08C08B
:10225000161617061806991FF1CF869571056105A8
:1022600008940895E894BB2766277727CB0197F950
:1022700008950E94C41008F48FEF08950E94511130
:102280000C94FF100E94F11038F00E94F81020F01A
:10229000952311F00C94E8100C94EE1011240C947A
:1022A00033110E94101170F3959FC1F3950F50E008
:1022B000551F629FF001729FBB27F00DB11D639FF8
:1022C000AA27F00DB11DAA1F649F6627B00DA11D9E
:1022D000661F829F2227B00DA11D621F739FB00D44
:1022E000A11D621F839FA00D611D221F749F3327B4
:1022F000A00D611D231F849F600D211D822F762F4D
:102300006A2F11249F5750409AF0F1F088234AF029
:10231000EE0FFF1FBB1F661F771F881F9150504095
:10232000A9F79E3F510580F00C94E8100C943311EE
:102330005F3FE4F3983ED4F3869577956795B7951C
:10234000F795E7959F5FC1F7FE2B880F911D969536
:10235000879597F90895A1E21A2EAA1BBB1BFD01D0
:102360000DC0AA1FBB1FEE1FFF1FA217B307E40774
:10237000F50720F0A21BB30BE40BF50B661F771FCC
:10238000881F991F1A9469F76095709580959095AC
:102390009B01AC01BD01CF010895052E97FB1EF4F2
:1023A00000940E94E41157FD07D00E94AB1107FC76
:1023B00003D04EF40C94E41150954095309521953E
:1023C0003F4F4F4F5F4F0895909580957095619561
:1023D0007F4F8F4F9F4F0895A29FB001B39FC001C1
:1023E000A39F700D811D1124911DB29F700D811D41
:1023F0001124911D0895EE0FFF1F0590F491E02D1B
:1024000009940F931F93CF93DF938230910510F4BB
:1024100082E090E0E091EA02F091EB0220E030E00F
:10242000A0E0B0E0309719F1408151810281138121
:1024300048175907C8F08417950769F4109731F0C9
:1024400012960C93129713961C9327C00093EA02DE
:102450001093EB0222C02115310519F042175307E2
:1024600018F49A01BD01EF01DF01F801DBCF21155E
:102470003105F9F0281B390B2430310580F48A81AD
:102480009B816115710521F0FB019383828304C058
:102490009093EB028093EA02FE01329644C0FE0163
:1024A000E20FF31F819391932250310939832883DE
:1024B0003AC02091E8023091E902232B41F42091A7
:1024C0000301309104013093E9022093E802209146
:1024D0000101309102012115310541F42DB73EB7BC
:1024E0004091050150910601241B350BE091E80253
:1024F000F091E902E217F307A0F42E1B3F0B281717
:10250000390778F0AC014E5F5F4F2417350748F06C
:102510004E0F5F1F5093E9024093E802819391931D
:1025200002C0E0E0F0E0CF01DF91CF911F910F9169
:102530000895CF93DF93009709F481C0FC0132978F
:1025400013821282A091EA02B091EB02109781F4FB
:1025500020813181820F931F2091E8023091E9029E
:102560002817390751F5F093E902E093E80267C0B4
:10257000ED0120E030E0CE17DF0740F44A815B81B7
:102580009E0141155105F1F0EA01F5CFD383C283D5
:1025900040815181840F951FC817D90759F488814C
:1025A0009981840F951F0296918380838A819B81F4
:1025B000938382832115310529F4F093EB02E09394
:1025C000EA023DC0E901FB83EA8349915991C40FB6
:1025D000D51FEC17FD0761F480819181840F951F51
:1025E0000296E90199838883828193819B838A8300
:1025F000E0E0F0E012968D919C911397009719F00E
:10260000FD01DC01F7CF8D919C9111979D012E5F0B
:102610003F4F820F931F2091E8023091E902281763
:10262000390769F4309729F41092EB021092EA020C
:1026300002C013821282B093E902A093E802DF91F4
:10264000CF91089581E090E0F8940C94271310E066
:10265000CEE5D0E004C0FE010E94FB112196CF35EB
:08266000D107C9F7F894FFCF80
:10266800FF0000EC02800000301030303020000005
:10267800000026019300BD007301EE00CC00E000CD
:10268800000000002202F5015202D1018B00E10195
:02269800D2016D
:107800000C94343C0C94513C0C94513C0C94513CE1
:107810000C94513C0C94513C0C94513C0C94513CB4
:107820000C94513C0C94513C0C94513C0C94513CA4
:107830000C94513C0C94513C0C94513C0C94513C94
:107840000C94513C0C94513C0C94513C0C94513C84
:107850000C94513C0C94513C0C94513C0C94513C74
:107860000C94513C0C94513C11241FBECFEFD8E036
:10787000DEBFCDBF11E0A0E0B1E0EAE8FFE702C063
:1078800005900D92A230B107D9F712E0A2E0B1E065
:1078900001C01D92AD30B107E1F70E942D3D0C945F
:1078A000C33F0C94003C982F95959595959595958B
:1078B000905D8F708A307CF0282F295A8091C0000B
:1078C00085FFFCCF9093C6008091C00085FFFCCF60
:1078D0002093C6000895282F205DF0CF982F809127
:1078E000C00085FFFCCF9093C6000895EF92FF92F1
:1078F0000F931F93EE24FF2487018091C00087FD22
:1079000017C00894E11CF11C011D111D81E2E8164D
:1079100081EAF80687E0080780E0180770F3E09135
:107920000401F091050109958091C00087FFE9CF1E
:107930008091C6001F910F91FF90EF9008950E94D3
:10794000763C982F8091C00085FFFCCF9093C600B5
:1079500091362CF490330CF09053892F089597555D
:10796000892F08951F930E949F3C182F0E949F3CCF
:107970001295107F810F1F9108951F93182F882350
:1079800021F00E94763C1150E1F71F9108951F935A
:10799000182F0E94763C803249F0809103018F5F5E
:1079A000809303018530C1F01F9108958091C0003C
:1079B00085FFFCCF84E18093C6008091C00085FFE5
:1079C000FCCF1093C6008091C00085FFFCCF80E102
:1079D0008093C6001F910895E0910401F091050184
:1079E00009951F9108950E94763C803241F0809164
:1079F00003018F5F80930301853081F008958091AA
:107A0000C00085FFFCCF84E18093C6008091C00058
:107A100085FFFCCF80E18093C6000895E0910401CA
:107A2000F09105010995089548EC50E08823A1F0F4
:107A30002D9A28EE33E0FA013197F1F721503040CA
:107A4000D1F72D9828EE33E0FA013197F1F7215064
:107A50003040D1F7815061F708953F924F925F9285
:107A60006F927F928F929F92AF92BF92CF92DF924E
:107A7000EF92FF920F931F93CF93DF93000082E06A
:107A80008093C00080E18093C4001092C50088E11B
:107A90008093C10086E08093C2005098589A259A3E
:107AA00081E00E94143D24E1F22E9EE1E92E85E959
:107AB000D82E0FE0C02E10E1B12EAA24A394B1E479
:107AC0009B2EA6E58A2EF2E57F2EE0E26E2E79E46B
:107AD000572E63E5462E50E5352E0E94763C8033C6
:107AE000B1F18133B9F1803409F46FC0813409F404
:107AF00076C0823409F485C0853409F488C08035A5
:107B000031F1823521F1813511F1853509F485C0D6
:107B1000863509F48DC0843609F496C0843709F49B
:107B200003C1853709F472C1863709F466C08091B4
:107B300003018F5F80930301853079F6E0910401A2
:107B4000F091050109950E94763C803351F60E9420
:107B5000F33CC3CF0E94763C803249F78091C0004D
:107B600085FFFCCFF092C6008091C00085FFFCCF5E
:107B70009092C6008091C00085FFFCCF8092C60025
:107B80008091C00085FFFCCF7092C6008091C0003C
:107B900085FFFCCF6092C6008091C00085FFFCCFBE
:107BA0005092C6008091C00085FFFCCF4092C60075
:107BB0008091C00085FFFCCF3092C6008091C0004C
:107BC00085FFFCCFB092C60088CF0E94763C8638F5
:107BD00008F4BDCF0E94763C0E94F33C7ECF0E9409
:107BE000763C803809F49CC0813809F40BC1823896
:107BF00009F430C1883909F48FC080E00E94C73C85
:107C00006CCF84E10E94BD3C0E94F33C66CF85E0CE
:107C10000E94BD3C0E94F33C60CF0E94763C809362
:107C200006010E94763C809307010E94F33C55CFE9
:107C30000E94763C803309F411C183E00E94BD3C70
:107C400080E00E94C73C49CF0E94763C80930902A5
:107C50000E94763C8093080280910C028E7F809374
:107C60000C020E94763C853409F409C18091080217
:107C700090910902892B89F000E010E00E94763C87
:107C8000F801E85FFE4F80830F5F1F4F809108026D
:107C9000909109020817190788F30E94763C8032F8
:107CA00009F045CF80910C0280FFF5C0609106017C
:107CB00070910701660F771F7093070160930601AB
:107CC000A0910802B09109021097C9F0E8E0F1E034
:107CD0009B01AD014E0F5F1FF999FECF32BD21BD53
:107CE000819180BDFA9AF99A2F5F3F4FE417F5070B
:107CF00099F76A0F7B1F70930701609306018091CB
:107D0000C00085FFFCCFF092C6008091C00085FFC7
:107D1000FCCFB092C600E1CE83E00E94C73CDDCE2E
:107D200082E00E94C73CD9CE0E94763C8093090233
:107D30000E94763C80930802809106019091070191
:107D4000880F991F90930701809306010E94763C4B
:107D5000853409F49AC080910C028E7F80930C02C6
:107D60000E94763C803209F0B8CE8091C00085FF39
:107D7000FCCFF092C600A0910802B09109021097C2
:107D8000C1F180910C02082F0170182F1695117007
:107D9000E0910601F0910701AF014F5F5F4FBA011B
:107DA00020E030E00023B1F4112339F49491809164
:107DB000C00085FFFCCF9093C6002F5F3F4FCB01E3
:107DC0000196FA012A173B0780F4BC014F5F5F4F11
:107DD000002351F3F999FECFF2BDE1BDF89A90B5B9
:107DE0008091C00085FFFCCFE6CF709307016093C0
:107DF00006018091C00085FDE5CE8091C00085FF21
:107E0000F8CFE0CE81E00E94C73C67CE0E94763C6E
:107E1000803209F08CCE8091C00085FFFCCFF092BB
:107E2000C6008091C00085FFFCCFE092C600809123
:107E3000C00085FFFCCFD092C6008091C00085FFB6
:107E4000FCCFC092C6008091C00085FFFCCFB092ED
:107E5000C60043CE80E10E94C73C3FCE0E94763CE4
:107E60000E94763C182F0E94763C112309F483C0AF
:107E7000113009F484C08FE00E94C73C2ECE80915F
:107E80000C02816080930C02F1CE80910C02816023
:107E900080930C0265CF809107018823880F880B9F
:107EA0008A2180930B028091060190910701880F2F
:107EB000991F90930701809306018091080280FF2B
:107EC00009C08091080290910902019690930902DD
:107ED00080930802F894F999FECF1127E0910601EA
:107EE000F0910701C8E0D1E0809108029091090269
:107EF000103091F40091570001700130D9F303E084
:107F000000935700E8950091570001700130D9F3B4
:107F100001E100935700E8950990199000915700EE
:107F200001700130D9F301E000935700E8951395F3
:107F3000103498F011270091570001700130D9F3E7
:107F400005E000935700E89500915700017001305B
:107F5000D9F301E100935700E8953296029709F0B2
:107F6000C7CF103011F00296E5CF11248091C000E8
:107F700085FFC5CEC8CE8EE10E94C73CAECD85E957
:0A7F80000E94C73CAACDF894FFCF81
:027F8A00800075
:040000030000780081
:00000001FF
